S02B00002F686F6D652F6173686F6B2D70617564656C2D617072696C2F4652444D2D4B4C32365A2F6770696F0E
S11300000030002091040000F5040000F904000011
S113001000000000000000000000000000000000DC
S1130020000000000000000000000000FD040000CB
S113003000000000000000000105000005050000AC
S1130040090500000D05000011050000150500005C
S1130050F1040000F1040000F1040000F1040000C8
S1130060190500001D0500002105000025050000FC
S1130070290500002D05000031050000F1040000F1
S1130080F1040000F1040000F1040000F104000098
S1130090F1040000F1040000F10400003505000043
S11300A0F1040000F1040000F1040000F104000078
S11300B0F1040000F1040000F1040000F104000068
S1130400FFFFFFFFFFFFFFFFFFFFFFFFFEFFFFFFF9
S1130410402292029A1A92467047C046174B002B0C
S113042000D1134B9D46FFF7F3FF00218B460F4687
S11304301348144A121A02F0B3F80E4B002B00D0E2
S113044098470D4B002B00D0984700200021040052
S11304500D000D48002802D00C4800E000BF02F057
S1130460A7F82000290000F085FF02F085F8C046B7
S11304700000080000000000000000000030002020
S11304800CF0FF1F58F0FF1F0000000000000000E8
S113049072B60E480E4901600A6882F308880D4856
S11304A080470D490D4A0E4B9B1A03DD043BC85887
S11304B0D050FBDC0B490C4A521A03DD0020885053
S11304C0043AFCDA62B609488047000008ED00E00F
S11304D000000000411C0000302B000000F0FF1F52
S11304E00CF0FF1F0CF0FF1F58F0FF1F1D0400004D
S11304F01148004711480047114800471148004778
S11305001148004711480047114800471148004767
S11305101148004711480047114800471148004757
S11305201148004711480047114800471148004747
S11305301148004711480047F1040000F504000089
S1130540F9040000FD040000010500000505000099
S1130550F1040000F1040000F1040000F1040000C3
S1130560F1040000F1040000F1040000F1040000B3
S11305703D0E00004112000065120000F10400006D
S11305800023C25C0133002AFBD1581E70470000CF
S1130590002243088B4274D303098B425FD3030ABE
S11305A08B4244D3030B8B4228D3030C8B420DD3D1
S11305B0FF22090212BA030C8B4202D3121209025F
S11305C065D0030B8B4219D300E0090AC30B8B429D
S11305D001D3CB03C01A5241830B8B4201D38B034B
S11305E0C01A5241430B8B4201D34B03C01A5241F0
S11305F0030B8B4201D30B03C01A5241C30A8B4233
S113060001D3CB02C01A5241830A8B4201D38B021D
S1130610C01A5241430A8B4201D34B02C01A5241C1
S1130620030A8B4201D30B02C01A5241CDD2C30933
S11306308B4201D3CB01C01A524183098B4201D3AF
S11306408B01C01A524143098B4201D34B01C01A9A
S1130650524103098B4201D30B01C01A5241C30812
S11306608B4201D3CB00C01A524183088B4201D381
S11306708B00C01A524143088B4201D34B00C01A6D
S11306805241411A00D20146524110467047FFE7D9
S113069001B5002000F0F0F802BDC0460029F7D0F3
S11306A076E7704703460B437FD4002243088B420E
S11306B074D303098B425FD3030A8B4244D3030BE5
S11306C08B4228D3030C8B420DD3FF22090212BAAA
S11306D0030C8B4202D31212090265D0030B8B4226
S11306E019D300E0090AC30B8B4201D3CB03C01A10
S11306F05241830B8B4201D38B03C01A5241430BEB
S11307008B4201D34B03C01A5241030B8B4201D3DA
S11307100B03C01A5241C30A8B4201D3CB02C01A45
S11307205241830A8B4201D38B02C01A5241430ABD
S11307308B4201D34B02C01A5241030A8B4201D3AC
S11307400B02C01A5241CDD2C3098B4201D3CB0153
S1130750C01A524183098B4201D38B01C01A524102
S113076043098B4201D34B01C01A524103098B4206
S113077001D30B01C01A5241C3088B4201D3CB00F1
S1130780C01A524183088B4201D38B00C01A5241D4
S113079043088B4201D34B00C01A5241411A00D284
S11307A001465241104670475DE0CA0F00D04942ED
S11307B0031000D34042534000229C4603098B425D
S11307C02DD3030A8B4212D3FC22890112BA030AE5
S11307D08B420CD3890192118B4208D38901921167
S11307E08B4204D389013AD0921100E08909C309EC
S11307F08B4201D3CB01C01A524183098B4201D3EE
S11308008B01C01A524143098B4201D34B01C01AD8
S1130810524103098B4201D30B01C01A5241C30850
S11308208B4201D3CB00C01A524183088B4201D3BF
S11308308B00C01A5241D9D243088B4201D34B00DA
S1130840C01A5241411A00D20146634652415B101C
S1130850104601D34042002B00D5494270476346FD
S11308605B1000D3404201B5002000F005F802BD42
S11308700029F8D016E770477047C0460448054B76
S113088010B5834203D0044B002B00D0984710BD11
S11308900CF0FF1F0CF0FF1F000000000648074982
S11308A0091A8B10C90FC91810B5491003D0044B8D
S11308B0002B00D0984710BD0CF0FF1F0CF0FF1F59
S11308C00000000010B5074C2378002B09D1FFF776
S11308D0D5FF054B002B02D0044800E000BF0123E4
S11308E0237010BD0CF0FF1F00000000082B000057
S11308F0054B10B5002B03D00449054800E000BFA8
S1130900FFF7CCFF10BDC0460000000010F0FF1F31
S1130910082B000080B584B000AF78607B681B0CA6
S1130920084A94466344FB60FB6819687B681B04AF
S11309301B0C01229A40FB680A431A60C046BD465C
S113094004B080BD0070044080B584B000AF78600E
S11309500023FB6006E00D4A7B68934206D0FB68E7
S11309600133FB60FB68002BF5D000E0C046FB6858
S1130970002B05D0064B074A0748902100F0CAFD1A
S1130980FB681800BD4604B080BDC04600A0064008
S1130990FC250000A029000020260000B0B58CB082
S11309A000AFF860B9607A60BB68002B05D18F4B4B
S11309B08F4A9048D72100F0ADFDBB681B68002B1F
S11309C005D18D4B8A4A8B48D82100F0A3FD2C23F6
S11309D0FB1800221A8000237B62BB681B68BB6182
S11309E004233B625AE0BB681B683A6A534319000C
S11309F07868FFF7CDFD03001A002A217B181A80BE
S1130A000A00BB181B88002B02D1BB1801221A80D4
S1130A102A257B191B883A6A534319007868FFF723
S1130A20B7FD03007B61BB681B687A69D31AFB615D
S1130A30BB681C687B191B8801331A003B6A53434B
S1130A4019007868FFF7A4FD0300E31AFA699A42D3
S1130A5013D9BB681C687B191B8801331A003B6AD5
S1130A60534319007868FFF793FD0300E31AFB6111
S1130A707B191A887B1901321A80FA69BB699A4278
S1130A8009D8FB69BB613B6A7B622C23FB182A22D1
S1130A90BA1812881A803B6A01333B623B6A202BE6
S1130AA0A1D9BB681B6864211800FFF771FD03001E
S1130AB01A0013005B009B18BA699A4201D94F4B84
S1130AC090E0FB681800FFF73FFF4D4B1800FFF75D
S1130AD021FFFB68DB78DBB20C229343DAB2FB68BC
S1130AE0DA707B6A032B0AD97B6A072B07D8FB6869
S1130AF0DB7ADBB202221343DAB2FB68DA72FB68F8
S1130B009B7ADBB21F229343DAB27B6ADBB2013BEE
S1130B10DBB21343DAB2FB689A72FB689B7ADBB2EE
S1130B201F229343DAB22C217B181B881B0A9BB229
S1130B30DBB21343DAB2FB681A707B181B88DAB293
S1130B40FB685A70FB689B78DAB22F203B1813219C
S1130B508A431A70BB681B79002B09D0BB681A79C9
S1130B603B181B781343DAB23B1810210A431A705E
S1130B70FB682F203A1812789A70FB681B78DBB256
S1130B8020229343DAB2FB681A70FB681B78DAB24E
S1130B90BB685B795B01DBB220210B40DBB2134302
S1130BA0DAB2FB681A703B18FA68D2781A70BB681C
S1130BB09B79002B05D03B183A18127808210A4378
S1130BC01A70BB68DB79002B06D02F22BB18BA1829
S1130BD0127804210A431A70FB682F22BA1812787B
S1130BE0DA7000231800BD460CB0B0BD8C2600009E
S1130BF0B42900002026000094260000B50400005B
S1130C000A00341080B582B000AF78607B68002B96
S1130C1006D10D4B0D4A5621FF310D4800F07AFCE8
S1130C207B68E12252021A607B6800221A717B6899
S1130C3000225A717B6800229A717B680022DA7163
S1130C40C046BD4602B080BD8C260000C02900000D
S1130C502026000080B584B000AF78607B681B79E3
S1130C60DBB21A007B685B79DBB21B021343FB60C7
S1130C70FB681800BD4604B080BD000080B584B098
S1130C8000AF786039600B217B1800221A707B1842
S1130C901B78DBB20133DAB27B181A703A6880230E
S1130CA01B02134006D07B6880225A713B68154AA8
S1130CB013403B603A688023DB01134006D07B6815
S1130CC040225A713B68104A13403B603B681F2224
S1130CD013400AD03B68DBB21F221340DAB27B68B0
S1130CE01A713B681F2293433B603B68002B02D080
S1130CF0064BFB6001E00023FB60FB681800BD4667
S1130D0004B080BDFF7FFFFFFFBFFFFFB4040000FE
S1130D1080B584B000AFF860B9607A60BB68002B1E
S1130D2012D10E4B0E4A0F490F4800F0F3FBC04698
S1130D30FB681B79DBB25BB2002BF9DABB685A1C87
S1130D40BA601A78FB68DA717B685A1E7A60002BE5
S1130D50EDD1C046C046BD4604B080BD8426000027
S1130D60D8290000090200002026000080B586B0C2
S1130D7000AFF860B9607A60BB68002B47D1294B9B
S1130D80294A86218900294800F0C4FBFB68180021
S1130D90FFF760FF03007B617B690822134007D0E3
S1130DA0FB6808211800FFF769FF9723DB0034E094
S1130DB07B690422134006D0FB6804211800FFF766
S1130DC05DFF1B4B29E07B690222134006D0FB68C0
S1130DD002211800FFF752FF164B1EE07B69012227
S1130DE0134006D0FB6801211800FFF747FF124BA0
S1130DF013E0FB681B79DBB21A0020231340C5D033
S1130E00BB685A1CBA60FA68D279D2B21A707B688D
S1130E105A1E7A60002BECD100231800BD4606B0A0
S1130E2080BDC04684260000EC2900002026000076
S1130E30B9040000BA040000BB04000080B500AF90
S1130E40044B1A68044B1B68044819009047C046B9
S1130E50BD4680BD2CF0FF1F28F0FF1F00A00640F8
S1130E6080B584B000AF78607B681B0C084A944658
S1130E706344FB60FB6819687B681B041B0C01223C
S1130E809A40FB680A431A60C046BD4604B080BD60
S1130E900070044080B584B000AF78600323BB6069
S1130EA00023FB6009E00F4BFA689200D3587A687C
S1130EB09A4207D0FB680133FB60FA68BB689A4228
S1130EC0F1D300E0C046FA68BB689A4205D3064BEA
S1130ED0064A0748A92100F01DFBFB681800BD461F
S1130EE004B080BD002A0000F4260000182A000087
S1130EF010270000B0B586B000AFF860B9607A6022
S1130F00BB68002B05D1714B714A7248D42100F0A3
S1130F1001FBBB681B68002B05D16F4B6C4A6D4805
S1130F20D52100F0F7FA16243B1900221A80152364
S1130F30FB1800221A7000233B61BB681B681B016D
S1130F4019007868FFF724FB03001A003B191A8084
S1130F503B191B88002B02D13B1901221A8016254C
S1130F607B191B881B0119007868FFF711FB03002C
S1130F701A00BB681B68D31A3B61BB681C687B19E9
S1130F801B8801331B0119007868FFF701FB03007C
S1130F90E31A3A699A4211D9BB681C687B191B8809
S1130FA001331B0119007868FFF7F2FA0300E31A12
S1130FB03B617B191A887B1901321A80BB681B6854
S1130FC064211800FFF7E4FA03001A0013005B0021
S1130FD09B183A699A4201D9404B72E0FB681800A9
S1130FE0FFF758FF02003E4B9200D3581800FFF75A
S1130FF037FFFB68DB78DBB20C229343DAB2FB6881
S1131000DA70FB681B78DBB21F229343DAB2162135
S11310107B181B881B0A9BB2DBB21343DAB2FB6852
S11310201A707B181B88DAB2FB685A70FB689B78CD
S1131030DAB215203B1813218A431A70BB681B7956
S1131040002B09D0BB681A793B181B781343DAB21A
S11310503B1810210A431A70FB6815203A181278BD
S11310609A70FB681B78DBB220229343DAB2BB6828
S11310705B795B01DBB220210B40DBB21343DAB2B4
S1131080FB681A703B18FA68D2781A70BB689B79AF
S1131090002B05D03B183A18127808210A431A701D
S11310A0BB68DB79002B06D01522BB18BA1812785E
S11310B004210A431A70FB681522BA181278DA70F0
S11310C000231800BD4606B0B0BDC046742700001A
S11310D02C2A0000102700007C270000F5030000E4
S11310E00C2A000080B582B000AF78607B68002BCA
S11310F006D10D4B0D4A5E21FF310D4800F00AFA6E
S11311007B68E12252021A607B6800221A717B68B4
S113111000225A717B6800229A717B680022DA717E
S1131120C046BD4602B080BD74270000382A0000C6
S11311301027000080B584B000AF78607B681B790D
S1131140DBB21A007B685B79DBB21B021343FB60E2
S1131150FB681800BD4604B080BD80B584B000AF04
S1131160F860B9607A600CE0C046FB681B79DBB2BA
S11311705BB2002BF9DABB685A1CBA601A78FB68B8
S1131180DA717B685A1E7A60002BEDD1C046C046E6
S1131190BD4604B080BD000080B586B000AFF860E5
S11311A0B9607A60BB68002B33D11F4B1F4A8F2173
S11311B089001F4800F0AEF9FB681800FFF7BAFF7A
S11311C003007B617B690822134001D0194B26E0A0
S11311D07B690422134001D0174B20E07B69022273
S11311E0134001D0154B1AE07B690122134002D051
S11311F0FD239B0013E0FB681B79DBB21A0020235C
S11312001340D9D0BB685A1CBA60FA68D279D2B2FA
S11312101A707B685A1E7A60002BECD100231800E8
S1131220BD4606B080BDC046A4270000502A000079
S113123010270000F1030000F2030000F303000094
S113124080B500AF044B1A68044B5B68044819006E
S11312509047C046BD4680BD3CF0FF1F30F0FF1FE5
S113126000B0064080B500AF044B1A68044B9B687D
S1131270044819009047C046BD4680BD3CF0FF1F9E
S113128030F0FF1F00C0064080B584B000AFF860A6
S1131290B960FB1D1A70FB1D1B78002B05D10122C0
S11312A0BB689A40FB689A6004E00122BB689A40DC
S11312B0FB685A60C046BD4604B080BD80B584B0AA
S11312C000AFF860B9607A607B68002B05D1144BDD
S11312D0144A15484B2100F01DF97B681B78002B3C
S11312E00AD1FB685B690121BA6891400A00D243C4
S11312F01A40FB685A610FE07B685A78B968FB684A
S11313001800FFF7C1FFFB685A690121BB689940C7
S11313100B001A43FB685A61C046BD4604B080BD49
S113132064280000642A00000828000080B582B008
S113133000AF786039607B683A68DA60C046BD46C1
S113134002B080BD80B582B000AF00237B60002373
S11313507B6003E0C0467B6801337B607B68044AA2
S11313609342F7D9C046C046BD4602B080BDC046D0
S1131370FF340C0080B582B000AF3B1D01221A700F
S11313803B1D00225A7000F05DF800F0B3FC00F041
S1131390A9F80C4B180000F0CBF90B4B180000F027
S11313A0C7F93B1D09481A001D21FFF787FFFFF706
S11313B0C9FF80239B05054A19001000FFF7B6FFFB
S11313C0C046F4E790280000AC28000000F10F406C
S11313D080B584B000AF78607B681B0C084A9446E3
S11313E06344FB60FB6819687B681B041B0C0122C7
S11313F09A40FB680A431A60C046BD4604B080BDEB
S11314000070044080B584B000AFF860B960FB1D83
S11314101A70FB68BA689200D358094A1A40FB1D37
S11314201B781902E023DB000B401A431100FB6810
S1131430BA689200D150C046BD4604B080BDC046D3
S1131440FFF8FFFF80B500AF124B1800FFF7C0FF95
S1131450114B1800FFF7BCFF104B022201211800AA
S1131460FFF7D0FF0D4B022202211800FFF7CAFF3D
S11314700B4B01221D211800FFF7C4FF094A0A4B38
S1131480D358084907229343074A8B50C046BD46A8
S113149080BDC046090038100D003810009004408B
S11314A000D00440007004401010000080B582B0E9
S11314B000AF7860084A094BD358094A1A407B6840
S11314C09906C0231B050B4003491343034A8B5061
S11314D0C046BD4602B080BD007004400410000048
S11314E0FFFFFFF380B582B000AF0120FFF7DEFFFE
S11314F000F07AFD03007B607B68E122510204481E
S1131500032200F09BF8C046BD4602B080BDC04631
S113151000A0064090B587B002AFF860B9607A6069
S11315203B60BC68FA68396803487B680093230011
S113153000F0FEF800BEFDE7D428000080B582B0BC
S113154000AF78600A00FB1C1A70FB1C1B78002B90
S113155008D07B68DB78DBB208221343DAB27B68FD
S1131560DA7007E07B68DB78DBB208229343DAB2F7
S11315707B68DA70C046BD4602B080BD80B582B0DB
S113158000AF78600A00FB1C1A70FB1C1B78002B50
S113159008D07B68DB78DBB204221343DAB27B68C1
S11315A0DA7007E07B68DB78DBB204229343DAB2BB
S11315B07B68DA70C046BD4602B080BD80B582B09B
S11315C000AF78600A00FB1C1A70FB1C1B78002B10
S11315D008D07B68DB78DBB208221343DAB27B687D
S11315E0DA7007E07B68DB78DBB208229343DAB277
S11315F07B68DA70C046BD4602B080BD80B582B05B
S113160000AF78600A00FB1C1A70FB1C1B78002BCF
S113161008D07B68DB78DBB204221343DAB27B6840
S1131620DA7007E07B68DB78DBB204229343DAB23A
S11316307B68DA70C046BD4602B080BD90B589B003
S113164000AFF860B9603B60FB1D1A70334B1B7828
S1131650002B01D001235CE0304BFA1D12781A7084
S1131660FB1D1B78062B05D050DC012B02D0032B6D
S113167026D04BE0FA68294B5A6018243B1918000D
S1131680FFF730FD21007B18BA681A60234B5B68B2
S11316903A6879181800FFF72DFC204B5B6801218C
S11316A01800FFF74BFF1D4B5B6801211800FFF783
S11316B065FF1A4B1A4A9A60184B1A4ADA6027E0F7
S11316C0FA68164B5A6010243B191800FFF79AFA6F
S11316D021007B18BA681A60104B5B683A68791865
S11316E01800FFF75BF90D4B5B6801211800FFF749
S11316F065FF0A4B5B6801211800FFF77FFF074B6A
S1131700094A9A60054B094ADA6001E0042300E0C3
S113171000231800BD4609B090BDC04640F0FF1F2D
S11317205B11000099110000110D00006D0D000007
S11317300FB480B582B000AF0C4B1B78002B02D1E4
S113174001235B420BE01423FB183B603A683969C0
S1131750074B180000F0D6F803007B607B68180084
S1131760BD4602B080BC08BC04B0184740F0FF1F5F
S11317707517000090B583B000AF7860094B1B78F3
S1131780002B02D101235B4208E0064B9C68054B09
S11317905B68391D01221800A04701231800BD46CB
S11317A003B090BD40F0FF1F80B586B000AFB960B4
S11317B07A603B600F23FB18021C1A70BB687B61C4
S11317C00DE00F23FB181A783B6A100098473B681A
S11317D01B685A1C3B681A607B6901337B617A6918
S11317E07B689A42EDDBC046C046BD4606B080BD6C
S11317F080B58CB000AFF860B9607A603B600023BC
S1131800FB61FB68BB61BB695A1CBA6100221A7098
S11318107B68002B35D0BB681B68FB62FB6A002B1E
S11318202BD1BB6930221A70FB690133FB61FB6960
S113183064E03968F86AFEF735FF03003B613B69F1
S11318403A685343FA6AD31ABB62BB6A002B06DABE
S1131850BB6A3B623B6A3022D31ABB6202E0BB6ABA
S11318603033BB623B69FB62BB695A1CBA61BA6A1A
S1131870D2B21A70FB690133FB61FB6A002BD8D129
S11318803BE0BB681B687B627B6A002B32D1BB697F
S113189030221A70FB690133FB61FB692EE03B685F
S11318A01900786AFEF774FE03007B613B687A696D
S11318B053437A6AD31A3B623B6A092B03D83B6AC7
S11318C030333B620BE03823FB181B78002B01D02C
S11318D0412300E061233A6A9B180A3B3B627B691F
S11318E07B62BB695A1CBA613A6AD2B21A70FB694C
S11318F00133FB617B6A002BD1D1FB691800BD4623
S11319000CB080BD90B59DB002AFF860B9607A604C
S113191000233B660023FB650023BB614A23FB18BD
S113192000221A7000233B61BB687B667BE17B6C01
S1131930252B07D07A6CFB6810009847BB690133EC
S1131940BB616DE14B23FB1801221A7000237B65F8
S11319500023BB651BE07B6E01337B667B6E1B78CB
S11319607B647B6C2F2B0DDD7B6C392B0ADC7A6D51
S113197013009B009B185B001A007B6CD318303B50
S11319807B6504E07B6E013B7B660123BB65BB6D1D
S1131990002BE0D006233B657B6E01337B667B6EB8
S11319A01B782E2B24D100233B650023BB651BE051
S11319B07B6E01337B667B6E1B787B647B6C2F2B89
S11319C00DDD7B6C392B0ADC3A6D13009B009B18F0
S11319D05B001A007B6CD318303B3B6504E07B6EE4
S11319E0013B7B660123BB65BB6D002BE0D002E0AD
S11319F07B6E013B7B667B6E01337B667B6E1B7863
S1131A007B647B6C642B1BD07B6C692B18D07B6C48
S1131A10662B15D07B6C462B12D07B6C782B0FD0A9
S1131A207B6C582B0CD07B6C6F2B09D07B6C622B9E
S1131A3006D07B6C702B03D07B6C752B00D0ABE095
S1131A407B6C642B02D07B6C692B16D17B681A1DCE
S1131A507A601B687B611423F9181C2438194B2302
S1131A60FB181B7800930A230122FFF7C1FE030031
S1131A70FB653A19FB6DD3183B667B6C582B02D07F
S1131A807B6C782B1DD17B6C782B03D14B23FB18FB
S1131A9000221A707B681A1D7A601B683B61102350
S1131AA0F9181C2438194B23FB181B7800931023B6
S1131AB00022FFF79DFE0300FB653A19FB6DD31866
S1131AC03B667B6C6F2B08D07B6C622B05D07B6CE8
S1131AD0702B02D07B6C752B40D17B681A1D7A6009
S1131AE01B683B617B6C752B1DD07B6C752B1FDCDD
S1131AF07B6C702B12D07B6C702B19DC7B6C622B93
S1131B0007D07B6C6F2B13D14A23FB1808221A7061
S1131B100FE04A23FB1802221A700AE04A23FB183A
S1131B2010221A7005E04A23FB180A221A7000E0FA
S1131B30C0464A23FB181A781023F9181C243819B4
S1131B404B23FB181B78009313000022FFF750FE71
S1131B500300FB653A19FB6DD3183B667A6D1823B5
S1131B60F818F96DFB68009303002020FFF71CFEB2
S1131B703B6E002B54D00AE03B6E5A1E3A661B782B
S1131B801A00FB6810009847BB690133BB613B6EC8
S1131B901B78002BF0D143E07B6C632B0DD17B6869
S1131BA01A1D7A601B68DBB23B643A6CFB68100058
S1131BB09847BB690133BB6132E07B6C732B28D13E
S1131BC07B681A1D7A601B68FB64FB6C002B27D0B2
S1131BD0FB6C1800FEF7D4FC0300FB657A6D182338
S1131BE0F818F96DFB68009303002020FFF7DCFD73
S1131BF00AE0FB6C5A1CFA641B781A00FB6810009C
S1131C009847BB690133BB61FB6C1B78002BF0D197
S1131C1006E07A6CFB6810009847BB690133BB612E
S1131C207B6E01337B667B6E1B787B647B6C002B45
S1131C3000D07CE6BB691800BD461BB090BD000017
S1131C4080B500AF0B4B9B78DBB21A00082313401E
S1131C5007D0084B9B78DBB2064A08210B43DBB262
S1131C609370054A88235B010021D150C046BD46CC
S1131C7080BDC04600D007400070044080B500AF6E
S1131C80034A044B0449D150C046BD4680BDC046FA
S1131C9000700440441000000000031080B582B0BE
S1131CA000AF7860034B7A681A60C046BD4602B044
S1131CB080BDC04650F0FF1F80B582B000AF020067
S1131CC0FB1D1A700A4B1B78DBB238229343DAB23D
S1131CD0FB1D1B78DB00DBB238210B40DBB204496F
S1131CE01343DBB20B70C046BD4602B080BDC04694
S1131CF00040064080B500AFFFF7C0FF104B18004E
S1131D0000F050FB0F4B1800FFF7C8FF002318002A
S1131D10FFF7D2FF0C4B1A000021002000F0ECFB6F
S1131D20022300210022180000F05AFA074B180081
S1131D3000F070F9064B074A1A60C046BD4680BDE4
S1131D40882A000000127A007B2A0000802A000002
S1131D5000F0FF1F006CDC0280B582B000AF786039
S1131D60084B1B68084A134019007B689A04C02377
S1131D701B031A40034B0A431A60C046BD4602B017
S1131D8080BDC04600700440FFFFF3FF80B582B001
S1131D9000AF7860084A094BD358094A1A407B6857
S1131DA0190480235B020B4003491343034A8B50FD
S1131DB0C046BD4602B080BD00700440041000005F
S1131DC0FFFFFEFF80B584B000AF786039600F205C
S1131DD03B187A6812781A703B183A1812785F2107
S1131DE00A401A703B6819783B183A1812780A436B
S1131DF01A707B683A1812781A70C046BD4604B04F
S1131E0080BD80B584B000AF78600A00FB1C1A70F6
S1131E100F203B187A6812781A703B183A18127817
S1131E200F218A431A703B183918FA1C0978127862
S1131E300A431A707B683A1812781A70C046BD4675
S1131E4004B080BD80B500AF074B1B68002B05D1E3
S1131E50064B074A0748E121FFF75CFB024B1B686E
S1131E601800BD4680BDC04650F0FF1F1429000075
S1131E70902A00002029000080B582B000AFFFF74F
S1131E80E1FF03007B607B68002B01D17B6840E0AD
S1131E90224B1B78DBB2DB08DAB2FB1C07210A40B9
S1131EA01A70FB1C1B787A68DA4013007B601B4BAA
S1131EB05B78DBB21B09DAB2BB1C03210A401A703F
S1131EC0BB1C1B78002B23D0FB1C1B78072B14D0C6
S1131ED01BDC052B02DC002B03DA16E0062B04D0F6
S1131EE013E07B685B097B6012E07B6814211800B7
S1131EF0FEF74EFB03007B600AE07B680C211800B0
S1131F00FEF746FB03007B6002E000237B60C046D3
S1131F107B681800BD4602B080BDC0460040064044
S1131F2080B500AF0B4B9B79DBB21A000123134041
S1131F3002D1094B1B6809E0084B1A68054B1B7A50
S1131F40DBB25B0807210B40DA4013001800BD46E2
S1131F5080BDC0460040064004F0FF1F08F0FF1F8C
S1131F6080B500AF074B9B79DBB21A0010231340F6
S1131F7003D1FFF781FF030001E0034B1B68180046
S1131F80BD4680BD0040064004F0FF1F80B500AF91
S1131F90FFF758FF03001800BD4680BD80B584B02C
S1131FA000AF78607B680E4A934204D80F23FB1875
S1131FB000221A700CE07B680A4A934204D80F236B
S1131FC0FB1801221A7003E00F23FB1802221A7077
S1131FD00F23FB181B781800BD4604B080BDC04613
S1131FE09798000000127A0080B500AF00F02EF838
S1131FF0064A074BD3581B0F0F2213400133190015
S1132000FEF7C6FA03001800BD4680BD0070044008
S11320104410000080B582B000AF786009497B6845
S11320205B68094A8B507B681B781800FFF7AEFE8B
S11320307B685B781800FFF78FFEC046BD4602B090
S113204080BDC046007004404410000080B582B0DA
S113205000AF1B4B9B79DBB29B08032213403B6010
S11320603B68032B0FD03B68032B20D83B68022B23
S113207018D03B68022B1AD83B68002B08D03B6869
S1132080012B0AD013E000F05FF803007B6011E03D
S113209000F018F803007B600CE0FFF741FF030039
S11320A07B6007E0FFF7CEFE03007B6002E00023C5
S11320B07B60C0467B681800BD4602B080BDC04648
S11320C00040064080B582B000AF1D4B5B78DBB2A8
S11320D01A000223134006D1194B9B79DBB21A0074
S11320E02023134001D0002326E0FFF739FF03002B
S11320F07B607B68002B01D17B681DE0104BDB7893
S1132100DBB25B09DAB2FB1C03210A401A700C4BE8
S1132110DB78DBB2DB09DAB2BB1C01210A401A709E
S1132120FB1C1978BB1C1A78064B49008A1852000C
S1132130D35A1A007B6853431800BD4602B080BDD1
S113214000400640A82A000080B582B000AF194BB9
S11321509B79DBB21A004023134001D1002325E010
S1132160FFF714FF03007B607B68002B05D1124B43
S1132170124A13491348FFF7CDF90E4B1B79DBB212
S11321801A001F231340013319007868FEF700FA80
S113219003007B60074B5B79DBB21A001F231340FB
S11321A018331A007B6853437B607B681800BD4674
S11321B002B080BD004006408C290000B82A00000F
S11321C0550200002029000080B582B000AF020053
S11321D0FB1D1A7000231800BD4602B080BD00002C
S11321E090B585B000AF040008001100FB1D221C4F
S11321F01A70BB1D021C1A707B1D0A1C1A70404BFE
S11322009B79DBB29B0803221340FB603C4B9B7918
S1132210DAB20B203B1801210A401A70384B1B7AA2
S1132220DBB25B08DAB20A243B1907210A401A70B0
S11322307A1D3B1912781B789A422ED03B181B78D2
S1132240012B19D1FB68012B06D02D4B1B78DBB277
S11322501A00022313400FD0294B5B78DBB2284AC3
S113226001218B43DBB25370C046254B9B79DBB213
S11322701A0001231340F8D1214B1B7ADBB22F2221
S11322809343DAB27B1D1B78DB18DBB20E210B40C3
S1132290DBB21B491343DBB20B72194B5B78DBB225
S11322A001229343DAB2BB1D1B7801210B40DBB240
S11322B013491343DBB24B70114B1B78DBB203227F
S11322C09343DAB20E49FB1D1B781343DBB20B7048
S11322D0FB68012B04D0FB1D1B78022213400AD09B
S11322E0C046074B9B79DBB21A0001231A40BB1D81
S11322F01B789A42F5D100231800BD4605B090BD65
S11323000040064080B584B000AF78607B68002B45
S113231006D1204B204ABE2189002048FFF7FAF855
S11323200F203B1800221A707B685B781F22134031
S1132330D9B23B183A1812780A431A70184A3B1853
S11323401B781371164B5B79DBB21F229343DAB20D
S11323507B689B781F210B40DBB211491343DBB22E
S11323604B710F4B1B79DAB27B681B781343DBB2DA
S11323700B4A40210B43DBB21371C046084B9B79D7
S1132380DBB21A0040231340F8D0C046C046BD4615
S113239004B080BD98290000CC2A00002029000048
S11323A000400640B0B584B000AF78607B681B681D
S11323B00F257C191800FFF7F1FD030023707B68DB
S11323C01B791B4A19001000FFF71BFD7B680633BD
S11323D0174A19001000FFF7F5FC164B5B78DBB2C7
S11323E03C229343DAB27B191B781B01DBB2302108
S11323F00B40DBB21343DAB27B685B790D491343BC
S1132400DBB24B707B685B79002B0DD0084B1B78DB
S1132410DBB25BB2002B07DAC046064B9B79DBB21A
S11324201A0002231340F8D0C046BD4604B0B0BD24
S1132430005006400040064080B582B000AF020064
S11324403960FB1D1A703B68002B05D1254B264AC9
S113245026492748FFF75EF8264B5B78DBB2254A0E
S113246002218B43DBB25370224B1B78DBB23B223D
S11324701340DBB21F49802252421343DBB20B707C
S1132480C0461C4B9B79DBB21A001C231340082B5B
S1132490F7D1184B5B79DBB2164A40218B43DBB290
S11324A05371C046134B9B79DBB21A0020231340AF
S11324B0F8D13B681800FFF725FF0E4B5B79DBB2C0
S11324C00C4A40210B43DBB25371C046094B9B7944
S11324D0DBB21A0020231340F8D000231800BD46B5
S11324E002B080BD98290000E02A000064050000C5
S11324F0202900000040064080B582B000AF3A6059
S1132500FB1D021C1A70BB1D0A1C1A703B68002BB1
S113251005D1144B144A15491548FEF7FBFFFB1D62
S11325201B781800FFF750FE3A68BB1D1B7811009A
S11325301800FFF781FF0F4B1B78DBB20D4A3F21D8
S11325400B40DBB21370C0460A4B9B79DBB21A0016
S11325500C2313400C2BF7D100231800BD4602B006
S113256080BDC04698290000F42A00000D06000032
S11325702029000000400640074B10B50400002B42
S113258002D0002100E000BF044B1B68002B00D0E8
S11325909847200000F030F80000000054F0FF1FBE
S11325A003008218934200D1704719700133F9E790
S11325B070B500260C4C0D4D641BA410A64209D125
S11325C0002600F0A1FA0A4C0A4D641BA410A6428E
S11325D005D170BDB300EB5898470136EEE7B30060
S11325E0EB5898470136F2E7282B0000282B00000F
S11325F02C2B0000282B0000FEE7C046696E737484
S1132600616E6365203C2041525241595F53495ADF
S11326104528735F6C707363694261736573290045
S11326202F55736572732F6173686F6B7061756476
S1132630656C617072696C2F4652444D2D4B4C325F
S1132640365A2F53444B5F325F325F305F465244F9
S11326504D2D4B4C32365A2F646576696365732F62
S11326604D4B4C32365A342F647269766572732F2F
S113267066736C5F6C707363692E630068616E646B
S11326806C6500006461746100000000636F6E6635
S113269069670000636F6E6669672D3E62617564E9
S11326A0526174655F42707300000000626175647A
S11326B0526174655F4270730000000072696E6756
S11326C042756666657200007866657200000000F7
S11326D0786665722D3E6461746153697A650000A1
S11326E0786665722D3E646174610000636F756E77
S11326F074000000696E7374616E6365203C20751C
S11327006172744172726179436F756E7400000076
S11327102F55736572732F6173686F6B7061756485
S1132720656C617072696C2F4652444D2D4B4C326E
S1132730365A2F53444B5F325F325F305F46524408
S11327404D2D4B4C32365A2F646576696365732F71
S11327504D4B4C32365A342F647269766572732F3E
S113276066736C5F756172742E63000068616E64D9
S11327706C650000636F6E6669670000636F6E6668
S113278069672D3E62617564526174655F4270735E
S11327900000000062617564526174655F42707389
S11327A000000000646174610000000072696E67DB
S11327B04275666665720000786665720000000006
S11327C0786665722D3E6461746153697A650000B0
S11327D0786665722D3E646174610000636F756E86
S11327E074000000696E7374616E6365203C20415F
S11327F0525241595F53495A4528735F6770696F54
S113280042617365732900002F55736572732F61DC
S113281073686F6B70617564656C617072696C2F3D
S11328204652444D2D4B4C32365A2F53444B5F3253
S11328305F325F305F4652444D2D4B4C32365A2F37
S1132840646576696365732F4D4B4C32365A342F69
S1132850647269766572732F66736C5F6770696FF3
S11328602E630000636F6E6669670000696E73749F
S1132870616E6365203C2041525241595F53495A6D
S11328804528735F666770696F42617365732900D9
S11328900D0A204750494F204472697665722065BD
S11328A078616D706C650D0A000000000D0A2054FB
S11328B06865204C45442069732074616B696E67B8
S11328C0207475726E7320746F207368696E652E40
S11328D00D0A0000415353455254204552524F5261
S11328E0202220257320223A2066696C6520222547
S11328F07322204C696E6520222564222066756E41
S11329006374696F6E206E616D65202225732220C9
S11329100A000000675F7874616C3046726571006C
S11329202F55736572732F6173686F6B7061756473
S1132930656C617072696C2F4652444D2D4B4C325C
S1132940365A2F53444B5F325F325F305F465244F6
S11329504D2D4B4C32365A2F646576696365732F5F
S11329604D4B4C32365A342F647269766572732F2C
S113297066736C5F636C6F636B2E6300675F787460
S1132980616C333246726571000000006D636770DC
S11329906C6C30636C6B0000636F6E66696700007B
S11329A04C505343495F476574496E7374616E6359
S11329B0650000004C505343495F496E6974000040
S11329C04C505343495F47657444656661756C7444
S11329D0436F6E66696700004C505343495F5772FA
S11329E0697465426C6F636B696E67004C50534346
S11329F0495F52656164426C6F636B696E67000086
S1132A000000000000B0064000C0064000000000C6
S1132A100B0034100C003410554152545F47657458
S1132A20496E7374616E6365000000005541525431
S1132A305F496E6974000000554152545F476574E4
S1132A4044656661756C74436F6E66696700000067
S1132A50554152545F52656164426C6F636B696E99
S1132A60670000004750494F5F50696E496E6974B2
S1132A700000000007020000000000000100000048
S1132A80010300000000011000127A00000480001D
S1132A90434C4F434B5F4765744D636745787443BC
S1132AA06C6B4672657100008002DC020005B8059B
S1132AB080079508000A710B434C4F434B5F4765F1
S1132AC074506C6C3046726571000000434C4F4387
S1132AD04B5F456E61626C65506C6C3000000000A9
S1132AE0434C4F434B5F5365745062654D6F64654F
S1132AF000000000434C4F434B5F426F6F74546FB0
S1132B005065654D6F646500F8B5C046F8BC08BCF7
S1132B109E467047F8B5C046F8BC08BC9E46704750
S10B2B20F0D8FF7F0100000062
S1072B28F1080000AC
S1072B2CC5080000D4
S10F2B30000040010080000000093D008E
S903049167
